:060000000A128A11EE2F26
:100F00007E088A007F0882000A128A1180270A124E
:100F10008A118000840A04087D0603190034FF0A40
:100F20000319FE0A842F3F340034063400345B3446
:100F300000344F340034663400346D3400347D3472
:100F40000034073400347F3400346F34003400340C
:100F50000034831603138701203084003830F000FA
:100F60000408F1001630F2007008840083130008B2
:100F7000F300F00A7108840073088000F10AF20B94
:100F8000B42F8312B601B7013608F0007007203E77
:100F900084008313000887000B30F2002630F10034
:100FA0005D30F000F00BD22FF10BD22FF20BD22FCD
:100FB000D92F013083120313B6070318B70A003084
:100FC000B707003037020A3003193602031CE92F35
:100FD000EA2FC42FC12F0A128A11002883134E3022
:100FE000FD000730FE009330FF00383084000A1205
:100FF0008A1184270A128A1183010A128A11A92FE1
:00000001FF
